{
  "contractName": "Ethermon",
  "abi": [
    {
      "inputs": [],
      "stateMutability": "nonpayable",
      "type": "constructor"
    },
    {
      "anonymous": false,
      "inputs": [
        {
          "indexed": true,
          "internalType": "address",
          "name": "owner",
          "type": "address"
        },
        {
          "indexed": true,
          "internalType": "address",
          "name": "approved",
          "type": "address"
        },
        {
          "indexed": true,
          "internalType": "uint256",
          "name": "tokenId",
          "type": "uint256"
        }
      ],
      "name": "Approval",
      "type": "event"
    },
    {
      "anonymous": false,
      "inputs": [
        {
          "indexed": true,
          "internalType": "address",
          "name": "owner",
          "type": "address"
        },
        {
          "indexed": true,
          "internalType": "address",
          "name": "operator",
          "type": "address"
        },
        {
          "indexed": false,
          "internalType": "bool",
          "name": "approved",
          "type": "bool"
        }
      ],
      "name": "ApprovalForAll",
      "type": "event"
    },
    {
      "anonymous": false,
      "inputs": [
        {
          "indexed": true,
          "internalType": "address",
          "name": "from",
          "type": "address"
        },
        {
          "indexed": true,
          "internalType": "address",
          "name": "to",
          "type": "address"
        },
        {
          "indexed": true,
          "internalType": "uint256",
          "name": "tokenId",
          "type": "uint256"
        }
      ],
      "name": "Transfer",
      "type": "event"
    },
    {
      "inputs": [
        {
          "internalType": "address",
          "name": "to",
          "type": "address"
        },
        {
          "internalType": "uint256",
          "name": "tokenId",
          "type": "uint256"
        }
      ],
      "name": "approve",
      "outputs": [],
      "stateMutability": "nonpayable",
      "type": "function"
    },
    {
      "inputs": [
        {
          "internalType": "address",
          "name": "owner",
          "type": "address"
        }
      ],
      "name": "balanceOf",
      "outputs": [
        {
          "internalType": "uint256",
          "name": "",
          "type": "uint256"
        }
      ],
      "stateMutability": "view",
      "type": "function"
    },
    {
      "inputs": [],
      "name": "gameOwner",
      "outputs": [
        {
          "internalType": "address",
          "name": "",
          "type": "address"
        }
      ],
      "stateMutability": "view",
      "type": "function"
    },
    {
      "inputs": [
        {
          "internalType": "uint256",
          "name": "tokenId",
          "type": "uint256"
        }
      ],
      "name": "getApproved",
      "outputs": [
        {
          "internalType": "address",
          "name": "",
          "type": "address"
        }
      ],
      "stateMutability": "view",
      "type": "function"
    },
    {
      "inputs": [
        {
          "internalType": "address",
          "name": "owner",
          "type": "address"
        },
        {
          "internalType": "address",
          "name": "operator",
          "type": "address"
        }
      ],
      "name": "isApprovedForAll",
      "outputs": [
        {
          "internalType": "bool",
          "name": "",
          "type": "bool"
        }
      ],
      "stateMutability": "view",
      "type": "function"
    },
    {
      "inputs": [
        {
          "internalType": "uint256",
          "name": "",
          "type": "uint256"
        }
      ],
      "name": "monsters",
      "outputs": [
        {
          "internalType": "string",
          "name": "name",
          "type": "string"
        },
        {
          "internalType": "uint256",
          "name": "level",
          "type": "uint256"
        }
      ],
      "stateMutability": "view",
      "type": "function"
    },
    {
      "inputs": [],
      "name": "name",
      "outputs": [
        {
          "internalType": "string",
          "name": "",
          "type": "string"
        }
      ],
      "stateMutability": "view",
      "type": "function"
    },
    {
      "inputs": [
        {
          "internalType": "uint256",
          "name": "tokenId",
          "type": "uint256"
        }
      ],
      "name": "ownerOf",
      "outputs": [
        {
          "internalType": "address",
          "name": "",
          "type": "address"
        }
      ],
      "stateMutability": "view",
      "type": "function"
    },
    {
      "inputs": [
        {
          "internalType": "address",
          "name": "from",
          "type": "address"
        },
        {
          "internalType": "address",
          "name": "to",
          "type": "address"
        },
        {
          "internalType": "uint256",
          "name": "tokenId",
          "type": "uint256"
        }
      ],
      "name": "safeTransferFrom",
      "outputs": [],
      "stateMutability": "nonpayable",
      "type": "function"
    },
    {
      "inputs": [
        {
          "internalType": "address",
          "name": "from",
          "type": "address"
        },
        {
          "internalType": "address",
          "name": "to",
          "type": "address"
        },
        {
          "internalType": "uint256",
          "name": "tokenId",
          "type": "uint256"
        },
        {
          "internalType": "bytes",
          "name": "_data",
          "type": "bytes"
        }
      ],
      "name": "safeTransferFrom",
      "outputs": [],
      "stateMutability": "nonpayable",
      "type": "function"
    },
    {
      "inputs": [
        {
          "internalType": "address",
          "name": "operator",
          "type": "address"
        },
        {
          "internalType": "bool",
          "name": "approved",
          "type": "bool"
        }
      ],
      "name": "setApprovalForAll",
      "outputs": [],
      "stateMutability": "nonpayable",
      "type": "function"
    },
    {
      "inputs": [
        {
          "internalType": "bytes4",
          "name": "interfaceId",
          "type": "bytes4"
        }
      ],
      "name": "supportsInterface",
      "outputs": [
        {
          "internalType": "bool",
          "name": "",
          "type": "bool"
        }
      ],
      "stateMutability": "view",
      "type": "function"
    },
    {
      "inputs": [],
      "name": "symbol",
      "outputs": [
        {
          "internalType": "string",
          "name": "",
          "type": "string"
        }
      ],
      "stateMutability": "view",
      "type": "function"
    },
    {
      "inputs": [
        {
          "internalType": "uint256",
          "name": "tokenId",
          "type": "uint256"
        }
      ],
      "name": "tokenURI",
      "outputs": [
        {
          "internalType": "string",
          "name": "",
          "type": "string"
        }
      ],
      "stateMutability": "view",
      "type": "function"
    },
    {
      "inputs": [
        {
          "internalType": "address",
          "name": "from",
          "type": "address"
        },
        {
          "internalType": "address",
          "name": "to",
          "type": "address"
        },
        {
          "internalType": "uint256",
          "name": "tokenId",
          "type": "uint256"
        }
      ],
      "name": "transferFrom",
      "outputs": [],
      "stateMutability": "nonpayable",
      "type": "function"
    },
    {
      "inputs": [
        {
          "internalType": "uint256",
          "name": "_attackingMonster",
          "type": "uint256"
        },
        {
          "internalType": "uint256",
          "name": "_defendingMonster",
          "type": "uint256"
        }
      ],
      "name": "battle",
      "outputs": [],
      "stateMutability": "nonpayable",
      "type": "function"
    },
    {
      "inputs": [
        {
          "internalType": "string",
          "name": "_name",
          "type": "string"
        },
        {
          "internalType": "address",
          "name": "_to",
          "type": "address"
        }
      ],
      "name": "createNewMonster",
      "outputs": [],
      "stateMutability": "nonpayable",
      "type": "function"
    }
  ],
  "bytecode": "0x60806040523480156200001157600080fd5b506040518060400160405280600881526020017f45746865726d6f6e0000000000000000000000000000000000000000000000008152506040518060400160405280600481526020017f454d4f4e00000000000000000000000000000000000000000000000000000000815250816000908051906020019062000096929190620000f9565b508060019080519060200190620000af929190620000f9565b50505033600760006101000a81548173ffffffffffffffffffffffffffffffffffffffff021916908373ffffffffffffffffffffffffffffffffffffffff1602179055506200020e565b8280546200010790620001a9565b90600052602060002090601f0160209004810192826200012b576000855562000177565b82601f106200014657805160ff191683800117855562000177565b8280016001018555821562000177579182015b828111156200017657825182559160200191906001019062000159565b5b5090506200018691906200018a565b5090565b5b80821115620001a55760008160009055506001016200018b565b5090565b60006002820490506001821680620001c257607f821691505b60208210811415620001d957620001d8620001df565b5b50919050565b7f4e487b7100000000000000000000000000000000000000000000000000000000600052602260045260246000fd5b612c52806200021e6000396000f3fe608060405234801561001057600080fd5b506004361061010b5760003560e01c80636352211e116100a2578063b88d4fde11610071578063b88d4fde146102b4578063c0576b73146102d0578063c87b56dd14610301578063e985e9c514610331578063f6b12f28146103615761010b565b80636352211e1461021a57806370a082311461024a57806395d89b411461027a578063a22cb465146102985761010b565b8063115dd1ab116100de578063115dd1ab146101aa57806323b872dd146101c65780632a0c5221146101e257806342842e0e146101fe5761010b565b806301ffc9a71461011057806306fdde0314610140578063081812fc1461015e578063095ea7b31461018e575b600080fd5b61012a60048036038101906101259190611dac565b61037f565b604051610137919061259a565b60405180910390f35b610148610461565b60405161015591906125b5565b60405180910390f35b61017860048036038101906101739190611e52565b6104f3565b6040516101859190612533565b60405180910390f35b6101a860048036038101906101a39190611d70565b610578565b005b6101c460048036038101906101bf9190611dfe565b610690565b005b6101e060048036038101906101db9190611c6a565b6107a3565b005b6101fc60048036038101906101f79190611e7b565b610803565b005b61021860048036038101906102139190611c6a565b610926565b005b610234600480360381019061022f9190611e52565b610946565b6040516102419190612533565b60405180910390f35b610264600480360381019061025f9190611c05565b6109f8565b60405161027191906127e7565b60405180910390f35b610282610ab0565b60405161028f91906125b5565b60405180910390f35b6102b260048036038101906102ad9190611d34565b610b42565b005b6102ce60048036038101906102c99190611cb9565b610cc3565b005b6102ea60048036038101906102e59190611e52565b610d25565b6040516102f89291906125d7565b60405180910390f35b61031b60048036038101906103169190611e52565b610de1565b60405161032891906125b5565b60405180910390f35b61034b60048036038101906103469190611c2e565b610e88565b604051610358919061259a565b60405180910390f35b610369610f1c565b6040516103769190612533565b60405180910390f35b60007f80ac58cd000000000000000000000000000000000000000000000000000000007bffffffffffffffffffffffffffffffffffffffffffffffffffffffff1916827bffffffffffffffffffffffffffffffffffffffffffffffffffffffff1916148061044a57507f5b5e139f000000000000000000000000000000000000000000000000000000007bffffffffffffffffffffffffffffffffffffffffffffffffffffffff1916827bffffffffffffffffffffffffffffffffffffffffffffffffffffffff1916145b8061045a575061045982610f42565b5b9050919050565b60606000805461047090612a47565b80601f016020809104026020016040519081016040528092919081815260200182805461049c90612a47565b80156104e95780601f106104be576101008083540402835291602001916104e9565b820191906000526020600020905b8154815290600101906020018083116104cc57829003601f168201915b5050505050905090565b60006104fe82610fac565b61053d576040517f08c379a000000000000000000000000000000000000000000000000000000000815260040161053490612747565b60405180910390fd5b6004600083815260200190815260200160002060009054906101000a900473ffffffffffffffffffffffffffffffffffffffff169050919050565b600061058382610946565b90508073ffffffffffffffffffffffffffffffffffffffff168373ffffffffffffffffffffffffffffffffffffffff1614156105f4576040517f08c379a00000000000000000000000000000000000000000000000000000000081526004016105eb906127a7565b60405180910390fd5b8073ffffffffffffffffffffffffffffffffffffffff16610613611018565b73ffffffffffffffffffffffffffffffffffffffff16148061064257506106418161063c611018565b610e88565b5b610681576040517f08c379a0000000000000000000000000000000000000000000000000000000008152600401610678906126c7565b60405180910390fd5b61068b8383611020565b505050565b600760009054906101000a900473ffffffffffffffffffffffffffffffffffffffff1673ffffffffffffffffffffffffffffffffffffffff163373ffffffffffffffffffffffffffffffffffffffff1614610720576040517f08c379a000000000000000000000000000000000000000000000000000000000815260040161071790612647565b60405180910390fd5b6000600680549050905060066040518060400160405280858152602001600181525090806001815401808255809150506001900390600052602060002090600202016000909190919091506000820151816000019080519060200190610787929190611a29565b5060208201518160010155505061079e82826110d9565b505050565b6107b46107ae611018565b826110f7565b6107f3576040517f08c379a00000000000000000000000000000000000000000000000000000000081526004016107ea906127c7565b60405180910390fd5b6107fe8383836111d5565b505050565b60006006838154811061083f577f4e487b7100000000000000000000000000000000000000000000000000000000600052603260045260246000fd5b9060005260206000209060020201905060006006838154811061088b577f4e487b7100000000000000000000000000000000000000000000000000000000600052603260045260246000fd5b9060005260206000209060020201905080600101548260010154106108e75760028260010160008282546108bf91906128d6565b9250508190555060018160010160008282546108db91906128d6565b92505081905550610920565b60018260010160008282546108fc91906128d6565b92505081905550600282600101600082825461091891906128d6565b925050819055505b50505050565b61094183838360405180602001604052806000815250610cc3565b505050565b6000806002600084815260200190815260200160002060009054906101000a900473ffffffffffffffffffffffffffffffffffffffff169050600073ffffffffffffffffffffffffffffffffffffffff168173ffffffffffffffffffffffffffffffffffffffff1614156109ef576040517f08c379a00000000000000000000000000000000000000000000000000000000081526004016109e690612707565b60405180910390fd5b80915050919050565b60008073ffffffffffffffffffffffffffffffffffffffff168273ffffffffffffffffffffffffffffffffffffffff161415610a69576040517f08c379a0000000000000000000000000000000000000000000000000000000008152600401610a60906126e7565b60405180910390fd5b600360008373ffffffffffffffffffffffffffffffffffffffff1673ffffffffffffffffffffffffffffffffffffffff168152602001908152602001600020549050919050565b606060018054610abf90612a47565b80601f0160208091040260200160405190810160405280929190818152602001828054610aeb90612a47565b8015610b385780601f10610b0d57610100808354040283529160200191610b38565b820191906000526020600020905b815481529060010190602001808311610b1b57829003601f168201915b5050505050905090565b610b4a611018565b73ffffffffffffffffffffffffffffffffffffffff168273ffffffffffffffffffffffffffffffffffffffff161415610bb8576040517f08c379a0000000000000000000000000000000000000000000000000000000008152600401610baf90612687565b60405180910390fd5b8060056000610bc5611018565b73ffffffffffffffffffffffffffffffffffffffff1673ffffffffffffffffffffffffffffffffffffffff16815260200190815260200160002060008473ffffffffffffffffffffffffffffffffffffffff1673ffffffffffffffffffffffffffffffffffffffff16815260200190815260200160002060006101000a81548160ff0219169083151502179055508173ffffffffffffffffffffffffffffffffffffffff16610c72611018565b73ffffffffffffffffffffffffffffffffffffffff167f17307eab39ab6107e8899845ad3d59bd9653f200f220920489ca2b5937696c3183604051610cb7919061259a565b60405180910390a35050565b610cd4610cce611018565b836110f7565b610d13576040517f08c379a0000000000000000000000000000000000000000000000000000000008152600401610d0a906127c7565b60405180910390fd5b610d1f84848484611431565b50505050565b60068181548110610d3557600080fd5b9060005260206000209060020201600091509050806000018054610d5890612a47565b80601f0160208091040260200160405190810160405280929190818152602001828054610d8490612a47565b8015610dd15780601f10610da657610100808354040283529160200191610dd1565b820191906000526020600020905b815481529060010190602001808311610db457829003601f168201915b5050505050908060010154905082565b6060610dec82610fac565b610e2b576040517f08c379a0000000000000000000000000000000000000000000000000000000008152600401610e2290612787565b60405180910390fd5b6000610e3561148d565b90506000815111610e555760405180602001604052806000815250610e80565b80610e5f846114a4565b604051602001610e7092919061250f565b6040516020818303038152906040525b915050919050565b6000600560008473ffffffffffffffffffffffffffffffffffffffff1673ffffffffffffffffffffffffffffffffffffffff16815260200190815260200160002060008373ffffffffffffffffffffffffffffffffffffffff1673ffffffffffffffffffffffffffffffffffffffff16815260200190815260200160002060009054906101000a900460ff16905092915050565b600760009054906101000a900473ffffffffffffffffffffffffffffffffffffffff1681565b60007f01ffc9a7000000000000000000000000000000000000000000000000000000007bffffffffffffffffffffffffffffffffffffffffffffffffffffffff1916827bffffffffffffffffffffffffffffffffffffffffffffffffffffffff1916149050919050565b60008073ffffffffffffffffffffffffffffffffffffffff166002600084815260200190815260200160002060009054906101000a900473ffffffffffffffffffffffffffffffffffffffff1673ffffffffffffffffffffffffffffffffffffffff1614159050919050565b600033905090565b816004600083815260200190815260200160002060006101000a81548173ffffffffffffffffffffffffffffffffffffffff021916908373ffffffffffffffffffffffffffffffffffffffff160217905550808273ffffffffffffffffffffffffffffffffffffffff1661109383610946565b73ffffffffffffffffffffffffffffffffffffffff167f8c5be1e5ebec7d5bd14f71427d1e84f3dd0314c0f7b2291e5b200ac8c7c3b92560405160405180910390a45050565b6110f3828260405180602001604052806000815250611651565b5050565b600061110282610fac565b611141576040517f08c379a0000000000000000000000000000000000000000000000000000000008152600401611138906126a7565b60405180910390fd5b600061114c83610946565b90508073ffffffffffffffffffffffffffffffffffffffff168473ffffffffffffffffffffffffffffffffffffffff1614806111bb57508373ffffffffffffffffffffffffffffffffffffffff166111a3846104f3565b73ffffffffffffffffffffffffffffffffffffffff16145b806111cc57506111cb8185610e88565b5b91505092915050565b8273ffffffffffffffffffffffffffffffffffffffff166111f582610946565b73ffffffffffffffffffffffffffffffffffffffff161461124b576040517f08c379a000000000000000000000000000000000000000000000000000000000815260040161124290612767565b60405180910390fd5b600073ffffffffffffffffffffffffffffffffffffffff168273ffffffffffffffffffffffffffffffffffffffff1614156112bb576040517f08c379a00000000000000000000000000000000000000000000000000000000081526004016112b290612667565b60405180910390fd5b6112c68383836116ac565b6112d1600082611020565b6001600360008573ffffffffffffffffffffffffffffffffffffffff1673ffffffffffffffffffffffffffffffffffffffff1681526020019081526020016000206000828254611321919061295d565b925050819055506001600360008473ffffffffffffffffffffffffffffffffffffffff1673ffffffffffffffffffffffffffffffffffffffff168152602001908152602001600020600082825461137891906128d6565b92505081905550816002600083815260200190815260200160002060006101000a81548173ffffffffffffffffffffffffffffffffffffffff021916908373ffffffffffffffffffffffffffffffffffffffff160217905550808273ffffffffffffffffffffffffffffffffffffffff168473ffffffffffffffffffffffffffffffffffffffff167fddf252ad1be2c89b69c2b068fc378daa952ba7f163c4a11628f55a4df523b3ef60405160405180910390a4505050565b61143c8484846111d5565b611448848484846116b1565b611487576040517f08c379a000000000000000000000000000000000000000000000000000000000815260040161147e90612607565b60405180910390fd5b50505050565b606060405180602001604052806000815250905090565b606060008214156114ec576040518060400160405280600181526020017f3000000000000000000000000000000000000000000000000000000000000000815250905061164c565b600082905060005b6000821461151e57808061150790612a79565b915050600a82611517919061292c565b91506114f4565b60008167ffffffffffffffff811115611560577f4e487b7100000000000000000000000000000000000000000000000000000000600052604160045260246000fd5b6040519080825280601f01601f1916602001820160405280156115925781602001600182028036833780820191505090505b5090505b60008514611645576001826115ab919061295d565b9150600a856115ba9190612ac2565b60306115c691906128d6565b60f81b818381518110611602577f4e487b7100000000000000000000000000000000000000000000000000000000600052603260045260246000fd5b60200101907effffffffffffffffffffffffffffffffffffffffffffffffffffffffffffff1916908160001a905350600a8561163e919061292c565b9450611596565b8093505050505b919050565b61165b8383611848565b61166860008484846116b1565b6116a7576040517f08c379a000000000000000000000000000000000000000000000000000000000815260040161169e90612607565b60405180910390fd5b505050565b505050565b60006116d28473ffffffffffffffffffffffffffffffffffffffff16611a16565b1561183b578373ffffffffffffffffffffffffffffffffffffffff1663150b7a026116fb611018565b8786866040518563ffffffff1660e01b815260040161171d949392919061254e565b602060405180830381600087803b15801561173757600080fd5b505af192505050801561176857506040513d601f19601f820116820180604052508101906117659190611dd5565b60015b6117eb573d8060008114611798576040519150601f19603f3d011682016040523d82523d6000602084013e61179d565b606091505b506000815114156117e3576040517f08c379a00000000000000000000000000000000000000000000000000000000081526004016117da90612607565b60405180910390fd5b805181602001fd5b63150b7a0260e01b7bffffffffffffffffffffffffffffffffffffffffffffffffffffffff1916817bffffffffffffffffffffffffffffffffffffffffffffffffffffffff191614915050611840565b600190505b949350505050565b600073ffffffffffffffffffffffffffffffffffffffff168273ffffffffffffffffffffffffffffffffffffffff1614156118b8576040517f08c379a00000000000000000000000000000000000000000000000000000000081526004016118af90612727565b60405180910390fd5b6118c181610fac565b15611901576040517f08c379a00000000000000000000000000000000000000000000000000000000081526004016118f890612627565b60405180910390fd5b61190d600083836116ac565b6001600360008473ffffffffffffffffffffffffffffffffffffffff1673ffffffffffffffffffffffffffffffffffffffff168152602001908152602001600020600082825461195d91906128d6565b92505081905550816002600083815260200190815260200160002060006101000a81548173ffffffffffffffffffffffffffffffffffffffff021916908373ffffffffffffffffffffffffffffffffffffffff160217905550808273ffffffffffffffffffffffffffffffffffffffff16600073ffffffffffffffffffffffffffffffffffffffff167fddf252ad1be2c89b69c2b068fc378daa952ba7f163c4a11628f55a4df523b3ef60405160405180910390a45050565b600080823b905060008111915050919050565b828054611a3590612a47565b90600052602060002090601f016020900481019282611a575760008555611a9e565b82601f10611a7057805160ff1916838001178555611a9e565b82800160010185558215611a9e579182015b82811115611a9d578251825591602001919060010190611a82565b5b509050611aab9190611aaf565b5090565b5b80821115611ac8576000816000905550600101611ab0565b5090565b6000611adf611ada84612833565b612802565b905082815260208101848484011115611af757600080fd5b611b02848285612a05565b509392505050565b6000611b1d611b1884612863565b612802565b905082815260208101848484011115611b3557600080fd5b611b40848285612a05565b509392505050565b600081359050611b5781612bc0565b92915050565b600081359050611b6c81612bd7565b92915050565b600081359050611b8181612bee565b92915050565b600081519050611b9681612bee565b92915050565b600082601f830112611bad57600080fd5b8135611bbd848260208601611acc565b91505092915050565b600082601f830112611bd757600080fd5b8135611be7848260208601611b0a565b91505092915050565b600081359050611bff81612c05565b92915050565b600060208284031215611c1757600080fd5b6000611c2584828501611b48565b91505092915050565b60008060408385031215611c4157600080fd5b6000611c4f85828601611b48565b9250506020611c6085828601611b48565b9150509250929050565b600080600060608486031215611c7f57600080fd5b6000611c8d86828701611b48565b9350506020611c9e86828701611b48565b9250506040611caf86828701611bf0565b9150509250925092565b60008060008060808587031215611ccf57600080fd5b6000611cdd87828801611b48565b9450506020611cee87828801611b48565b9350506040611cff87828801611bf0565b925050606085013567ffffffffffffffff811115611d1c57600080fd5b611d2887828801611b9c565b91505092959194509250565b60008060408385031215611d4757600080fd5b6000611d5585828601611b48565b9250506020611d6685828601611b5d565b9150509250929050565b60008060408385031215611d8357600080fd5b6000611d9185828601611b48565b9250506020611da285828601611bf0565b9150509250929050565b600060208284031215611dbe57600080fd5b6000611dcc84828501611b72565b91505092915050565b600060208284031215611de757600080fd5b6000611df584828501611b87565b91505092915050565b60008060408385031215611e1157600080fd5b600083013567ffffffffffffffff811115611e2b57600080fd5b611e3785828601611bc6565b9250506020611e4885828601611b48565b9150509250929050565b600060208284031215611e6457600080fd5b6000611e7284828501611bf0565b91505092915050565b60008060408385031215611e8e57600080fd5b6000611e9c85828601611bf0565b9250506020611ead85828601611bf0565b9150509250929050565b611ec081612991565b82525050565b611ecf816129a3565b82525050565b6000611ee082612893565b611eea81856128a9565b9350611efa818560208601612a14565b611f0381612baf565b840191505092915050565b6000611f198261289e565b611f2381856128ba565b9350611f33818560208601612a14565b611f3c81612baf565b840191505092915050565b6000611f528261289e565b611f5c81856128cb565b9350611f6c818560208601612a14565b80840191505092915050565b6000611f856032836128ba565b91507f4552433732313a207472616e7366657220746f206e6f6e20455243373231526560008301527f63656976657220696d706c656d656e74657200000000000000000000000000006020830152604082019050919050565b6000611feb601c836128ba565b91507f4552433732313a20746f6b656e20616c7265616479206d696e746564000000006000830152602082019050919050565b600061202b6027836128ba565b91507f4f6e6c792067616d65206f776e65722063616e20637265617465206e6577206d60008301527f6f6e7374657273000000000000000000000000000000000000000000000000006020830152604082019050919050565b60006120916024836128ba565b91507f4552433732313a207472616e7366657220746f20746865207a65726f2061646460008301527f72657373000000000000000000000000000000000000000000000000000000006020830152604082019050919050565b60006120f76019836128ba565b91507f4552433732313a20617070726f766520746f2063616c6c6572000000000000006000830152602082019050919050565b6000612137602c836128ba565b91507f4552433732313a206f70657261746f7220717565727920666f72206e6f6e657860008301527f697374656e7420746f6b656e00000000000000000000000000000000000000006020830152604082019050919050565b600061219d6038836128ba565b91507f4552433732313a20617070726f76652063616c6c6572206973206e6f74206f7760008301527f6e6572206e6f7220617070726f76656420666f7220616c6c00000000000000006020830152604082019050919050565b6000612203602a836128ba565b91507f4552433732313a2062616c616e636520717565727920666f7220746865207a6560008301527f726f2061646472657373000000000000000000000000000000000000000000006020830152604082019050919050565b60006122696029836128ba565b91507f4552433732313a206f776e657220717565727920666f72206e6f6e657869737460008301527f656e7420746f6b656e00000000000000000000000000000000000000000000006020830152604082019050919050565b60006122cf6020836128ba565b91507f4552433732313a206d696e7420746f20746865207a65726f20616464726573736000830152602082019050919050565b600061230f602c836128ba565b91507f4552433732313a20617070726f76656420717565727920666f72206e6f6e657860008301527f697374656e7420746f6b656e00000000000000000000000000000000000000006020830152604082019050919050565b60006123756029836128ba565b91507f4552433732313a207472616e73666572206f6620746f6b656e2074686174206960008301527f73206e6f74206f776e00000000000000000000000000000000000000000000006020830152604082019050919050565b60006123db602f836128ba565b91507f4552433732314d657461646174613a2055524920717565727920666f72206e6f60008301527f6e6578697374656e7420746f6b656e00000000000000000000000000000000006020830152604082019050919050565b60006124416021836128ba565b91507f4552433732313a20617070726f76616c20746f2063757272656e74206f776e6560008301527f72000000000000000000000000000000000000000000000000000000000000006020830152604082019050919050565b60006124a76031836128ba565b91507f4552433732313a207472616e736665722063616c6c6572206973206e6f74206f60008301527f776e6572206e6f7220617070726f7665640000000000000000000000000000006020830152604082019050919050565b612509816129fb565b82525050565b600061251b8285611f47565b91506125278284611f47565b91508190509392505050565b60006020820190506125486000830184611eb7565b92915050565b60006080820190506125636000830187611eb7565b6125706020830186611eb7565b61257d6040830185612500565b818103606083015261258f8184611ed5565b905095945050505050565b60006020820190506125af6000830184611ec6565b92915050565b600060208201905081810360008301526125cf8184611f0e565b905092915050565b600060408201905081810360008301526125f18185611f0e565b90506126006020830184612500565b9392505050565b6000602082019050818103600083015261262081611f78565b9050919050565b6000602082019050818103600083015261264081611fde565b9050919050565b600060208201905081810360008301526126608161201e565b9050919050565b6000602082019050818103600083015261268081612084565b9050919050565b600060208201905081810360008301526126a0816120ea565b9050919050565b600060208201905081810360008301526126c08161212a565b9050919050565b600060208201905081810360008301526126e081612190565b9050919050565b60006020820190508181036000830152612700816121f6565b9050919050565b600060208201905081810360008301526127208161225c565b9050919050565b60006020820190508181036000830152612740816122c2565b9050919050565b6000602082019050818103600083015261276081612302565b9050919050565b6000602082019050818103600083015261278081612368565b9050919050565b600060208201905081810360008301526127a0816123ce565b9050919050565b600060208201905081810360008301526127c081612434565b9050919050565b600060208201905081810360008301526127e08161249a565b9050919050565b60006020820190506127fc6000830184612500565b92915050565b6000604051905081810181811067ffffffffffffffff8211171561282957612828612b80565b5b8060405250919050565b600067ffffffffffffffff82111561284e5761284d612b80565b5b601f19601f8301169050602081019050919050565b600067ffffffffffffffff82111561287e5761287d612b80565b5b601f19601f8301169050602081019050919050565b600081519050919050565b600081519050919050565b600082825260208201905092915050565b600082825260208201905092915050565b600081905092915050565b60006128e1826129fb565b91506128ec836129fb565b9250827fffffffffffffffffffffffffffffffffffffffffffffffffffffffffffffffff0382111561292157612920612af3565b5b828201905092915050565b6000612937826129fb565b9150612942836129fb565b92508261295257612951612b22565b5b828204905092915050565b6000612968826129fb565b9150612973836129fb565b92508282101561298657612985612af3565b5b828203905092915050565b600061299c826129db565b9050919050565b60008115159050919050565b60007fffffffff0000000000000000000000000000000000000000000000000000000082169050919050565b600073ffffffffffffffffffffffffffffffffffffffff82169050919050565b6000819050919050565b82818337600083830152505050565b60005b83811015612a32578082015181840152602081019050612a17565b83811115612a41576000848401525b50505050565b60006002820490506001821680612a5f57607f821691505b60208210811415612a7357612a72612b51565b5b50919050565b6000612a84826129fb565b91507fffffffffffffffffffffffffffffffffffffffffffffffffffffffffffffffff821415612ab757612ab6612af3565b5b600182019050919050565b6000612acd826129fb565b9150612ad8836129fb565b925082612ae857612ae7612b22565b5b828206905092915050565b7f4e487b7100000000000000000000000000000000000000000000000000000000600052601160045260246000fd5b7f4e487b7100000000000000000000000000000000000000000000000000000000600052601260045260246000fd5b7f4e487b7100000000000000000000000000000000000000000000000000000000600052602260045260246000fd5b7f4e487b7100000000000000000000000000000000000000000000000000000000600052604160045260246000fd5b6000601f19601f8301169050919050565b612bc981612991565b8114612bd457600080fd5b50565b612be0816129a3565b8114612beb57600080fd5b50565b612bf7816129af565b8114612c0257600080fd5b50565b612c0e816129fb565b8114612c1957600080fd5b5056fea2646970667358221220edcd52e48554eb49d8207c0ac3d21f1f2f681c4ed196250824e04211ad850bda64736f6c63430008000033",
  "immutableReferences": {},
  "source": "// SPDX-License-Identifier: MIT\npragma solidity ^0.8.0;\n\nimport \"@openzeppelin/contracts/token/ERC721/ERC721.sol\";\n\ncontract Ethermon is ERC721 {\n\n    struct Monster {\n        string name;\n        uint level;\n    }\n\n    Monster[] public monsters;\n    address public gameOwner;\n\n    constructor() ERC721(\"Ethermon\", \"EMON\") {\n        gameOwner = msg.sender;\n    }\n\n    modifier onlyOwnerOf(uint _monsterId) {\n        require(ownerOf(_monsterId) == msg.sender, \"Must be owner of monster to battle\");\n        _;\n    }\n\n    function battle(uint _attackingMonster, uint _defendingMonster) public {\n        Monster storage attacker = monsters[_attackingMonster];\n        Monster storage defender = monsters[_defendingMonster];\n\n        if (attacker.level >= defender.level) {\n            attacker.level += 2;\n            defender.level += 1;\n        }\n\n        else{\n            attacker.level += 1;\n            attacker.level += 2;\n        }\n    }\n\n    function createNewMonster(string memory _name, address _to) public {\n        require(msg.sender == gameOwner, \"Only game owner can create new monsters\");\n        uint id = monsters.length;\n        monsters.push(Monster(_name,1));\n        _safeMint(_to, id);\n    }\n}",
  "sourcePath": "/Users/umutyerli/blockchain/ethermon/contracts/Ethermon.sol",
  "compiler": {
    "name": "solc",
    "version": "0.8.0+commit.c7dfd78e.Emscripten.clang"
  },
  "schemaVersion": "3.2.3",
  "updatedAt": "2021-06-04T21:04:08.148Z",
  "devdoc": {
    "kind": "dev",
    "methods": {
      "approve(address,uint256)": {
        "details": "See {IERC721-approve}."
      },
      "balanceOf(address)": {
        "details": "See {IERC721-balanceOf}."
      },
      "getApproved(uint256)": {
        "details": "See {IERC721-getApproved}."
      },
      "isApprovedForAll(address,address)": {
        "details": "See {IERC721-isApprovedForAll}."
      },
      "name()": {
        "details": "See {IERC721Metadata-name}."
      },
      "ownerOf(uint256)": {
        "details": "See {IERC721-ownerOf}."
      },
      "safeTransferFrom(address,address,uint256)": {
        "details": "See {IERC721-safeTransferFrom}."
      },
      "safeTransferFrom(address,address,uint256,bytes)": {
        "details": "See {IERC721-safeTransferFrom}."
      },
      "setApprovalForAll(address,bool)": {
        "details": "See {IERC721-setApprovalForAll}."
      },
      "supportsInterface(bytes4)": {
        "details": "See {IERC165-supportsInterface}."
      },
      "symbol()": {
        "details": "See {IERC721Metadata-symbol}."
      },
      "tokenURI(uint256)": {
        "details": "See {IERC721Metadata-tokenURI}."
      },
      "transferFrom(address,address,uint256)": {
        "details": "See {IERC721-transferFrom}."
      }
    },
    "version": 1
  },
  "userdoc": {
    "kind": "user",
    "methods": {},
    "version": 1
  }
}